:100000000C9434000C9451000C9451000C94510049
:100010000C9451000C9451000C9451000C9451001C
:100020000C9451000C9451000C9451000C9451000C
:100030000C9451000C9451000C9451000C945100FC
:100040000C94B9000C9451000C9451000C94510084
:100050000C9451000C9451000C9451000C945100DC
:100060000C9451000C94510011241FBECFEFD8E026
:10007000DEBFCDBF11E0A0E0B1E0EEEBF4E002C0E6
:1000800005900D92A630B107D9F721E0A6E0B1E0C6
:1000900001C01D92A131B207E1F70E94FA000C9451
:1000A0005D020C94000064B181E090E0AC0100902E
:1000B0000F0102C0440F551F0A94E2F79C01009003
:1000C000050102C0220F331F0A94E2F7422B462B90
:1000D0009C010090040102C0220F331F0A94E2F732
:1000E000422B9C010090030102C0220F331F0A948F
:1000F000E2F7422B9C010090020102C0220F331F45
:100100000A94E2F7422B44B94AB19C0100900001E5
:1001100002C0220F331F0A94E2F7422B4AB92BB1D7
:100120000090010102C0880F991F0A94E2F7282B62
:100130002BB91092B400E0EBF0E0808180688083FE
:10014000808183608083E1EBF0E080818260808346
:1001500082E084BDEEE6F0E0808181608083E89AF1
:10016000E9E6F0E08081826080831092100178944B
:1001700008951F920F920FB60F9211248F939F93A1
:10018000AF93BF9380910601882399F080910B0172
:1001900090910C01A0910D01B0910E010196A11D4D
:1001A000B11D80930B0190930C01A0930D01B093AE
:1001B0000E01809110018250843098F480910701E3
:1001C00090910801A0910901B0910A010196A11D29
:1001D000B11D8093070190930801A0930901B0938A
:1001E0000A01BF91AF919F918F910F900FBE0F9019
:1001F0001F9018950E94530082E3C82ED12CE12C49
:10020000F12CC1E0D0E00FEF11E095E0B92E24E031
:10021000A22E33E0932E42E0842E4A9903C010931D
:10022000060102C01092060160910B0170910C0151
:1002300080910D0190910E012B013C0122E3421AA5
:100240005108610871082091100137EB431633E023
:1002500053066104710410F53091060131111EC07E
:10026000213019F48092100132C0223019F490929A
:1002700010012DC0233019F4A092100128C02430A1
:1002800019F4B092100123C0253019F41092100116
:100290001EC021111CC01093100119C0683E33E02C
:1002A00073078105910598F030910601313079F49A
:1002B000222369F0A70196010E943B02672B682B5D
:1002C000692B29F48091B40081508093B40080910F
:1002D0001001823009F45CC028F4882361F0813079
:1002E000E9F1BCC0843009F486C008F46BC08530E5
:1002F00009F49AC0B3C045B19E010090050102C047
:10030000220F331F0A94E2F7CE0100900F0102C0C2
:10031000880F991F0A94E2F7282BCE010090040160
:1003200002C0880F991F0A94E2F7282BCE01009093
:10033000030102C0880F991F0A94E2F7282BCE010F
:100340000090020102C0880F991F0A94E2F7282B3F
:100350002095242325B91092B40011C025B1CE01F7
:1003600000900F0102C0880F991F0A94E2F7282B12
:1003700025B98091B400811102C00093B40010929D
:100380000701109208011092090110920A0166C03B
:1003900025B1CE010090050102C0880F991F0A9473
:1003A000E2F7282B25B98091070190910801A091CF
:1003B0000901B0910A0181349747AB41B10508F4B6
:1003C0004DC04AC025B1CE010090040102C0880F83
:1003D000991F0A94E2F7282B25B980910701909183
:1003E0000801A0910901B0910A0181389E4EA643EF
:1003F000B105A0F131C025B1CE010090030102C0CA
:10040000880F991F0A94E2F7282B25B980910701DC
:1004100090910801A0910901B0910A01813C954693
:10042000A245B105D8F018C025B1CE010090020157
:1004300002C0880F991F0A94E2F7282B25B98091F2
:10044000070190910801A0910901B0910A01813042
:100450009D4DAD46B10510F010921001809106013E
:100460008111DBCE10920B0110920C0110920D0144
:1004700010920E01D2CEA1E21A2EAA1BBB1BFD01C7
:100480000DC0AA1FBB1FEE1FFF1FA217B307E40773
:10049000F50720F0A21BB30BE40BF50B661F771FCB
:1004A000881F991F1A9469F76095709580959095AB
:0E04B0009B01AC01BD01CF010895F894FFCF70
:0604BE0003020403020129
:00000001FF
