:100000000C9434000C9446000C9446000C9446006A
:100010000C9446000C9446000C9446000C94460048
:100020000C9446000C9446000C9446000C94460038
:100030000C9446000C9446000C9446000C94460028
:100040000C946D000C9446000C9446000C944600F1
:100050000C9446000C9446000C9446000C94460008
:100060000C9446000C94460011241FBECFEFD8E03C
:10007000DEBFCDBF21E0A0E0B1E001C01D92AA30FB
:10008000B207E1F70E94AE000C94AA010C940000A4
:1000900084B18F6184B9539A5A9A1092B400E0EBFC
:1000A000F0E0808180688083808183608083E1EBE1
:1000B000F0E080818260808382E084BDEEE6F0E043
:1000C000808181608083E89AE9E6F0E08081826047
:1000D000808310920901789408951F920F920FB6B1
:1000E0000F9211248F939F93AF93BF938091000140
:1000F000882399F08091050190910601A091070154
:10010000B09108010196A11DB11D80930501909346
:100110000601A0930701B093080180910901825064
:10012000843098F48091010190910201A091030123
:10013000B09104010196A11DB11D8093010190931E
:100140000201A0930301B0930401BF91AF919F916D
:100150008F910F900FBE0F901F9018950E9448002E
:1001600082E3C82ED12CE12CF12CDFEFC1E015E0A9
:1001700004E093E0B92E22E0A22E4A9903C0109227
:10018000000102C0C0930001609105017091060159
:1001900080910701909108012B013C0122E3421A52
:1001A0005108610871082091090137EB431633E0CB
:1001B00053066104710410F53091000131111EC025
:1001C000213019F4A092090132C0223019F4B09202
:1001D00009012DC0233019F40093090128C02430EF
:1001E00019F41093090123C0253019F41092090164
:1001F0001EC021111CC0C093090119C0683E33E024
:1002000073078105910598F030910001313079F440
:10021000222369F0A70196010E948801672B682BB1
:10022000692B29F48091B40081508093B4008091AF
:100230000901823019F128F4882351F0813071F0DE
:100240005AC08430C9F148F1853009F444C053C024
:1002500085B1807E85B91092B40007C0289A80913C
:10026000B400811102C0D093B40010920101109229
:10027000020110920301109204013DC0299A80915D
:10028000010190910201A0910301B0910401813418
:100290009747AB41B10578F12CC02A9A80910101B2
:1002A00090910201A0910301B091040181389E4E0A
:1002B000A643B10500F11DC02B9A809101019091D8
:1002C0000201A0910301B0910401813C9546A24531
:1002D000B10588F00EC02C9A809101019091020125
:1002E000A0910301B091040181309D4DAD46B1054F
:1002F00010F0109209018091000181113ECF1092FF
:10030000050110920601109207011092080135CFE5
:10031000A1E21A2EAA1BBB1BFD010DC0AA1FBB1F09
:10032000EE1FFF1FA217B307E407F50720F0A21B7B
:10033000B30BE40BF50B661F771F881F991F1A94E8
:1003400069F760957095809590959B01AC01BD0112
:08035000CF010895F894FFCFDE
:00000001FF
